S01700004E54495F6E65775F70726F6A6563742E7372656323
S11300000C9432000C94FF060C9428070C945107AE
S11300100C9420090C94F7080C94CE080C947C08DA
S11300200C94A5080C9453080C942A080C94010809
S11300300C944F000C944F000C944F000C944F0000
S11300400C944F000C944F000C944F000C944F00F0
S11300500C944F00A807B207BC07C607D007DA07FD
S1130060E407EE0711241FBECFE5D8E0DEBFCDBF05
S113007011E0A0E6B0E0E0ECF2E102C005900D92E0
S1130080A431B107D9F721E0A4E1B1E001C01D9288
S1130090A933B207E1F70E94D4030C945E090C94CF
S11300A00000813051F028F0823059F0833069F03B
S11300B010C080E00E94E606089581E00E94E606F2
S11300C0089587E00E94E60608958EE00E94E60601
S11300D0089581E0089561E085E10E94870661E06A
S11300E084E10E94870661E083E10E94870661E063
S11300F082E10E94870663E08FE10E94870663E045
S11301008EE10E94870663E08DE10E94870663E02A
S11301108BE10E9487060895FF920F931F93CF935C
S1130120DF9300E010E00F2EF4E5FF2EF02D3AC02F
S113013060E0F801EC59FF4F80810E948706C0E01F
S1130140D0E024C0FE01E05AFF4F80810E94E60601
S113015081111BC0F801EE0FFF1FEE0FFF1FE859BE
S1130160FF4FEC0FFD1FF080FE01E05AFF4F80812E
S11301700E94E6068823C1F32FE785EB91E0215026
S113018080409040E1F700C000002196C430D105C2
S1130190CCF2F801EC59FF4F61E080810E948706A0
S11301A00F5F1F4F043011051CF28F2DDF91CF918B
S11301B01F910F91FF900895CF93C82F60E083E0C3
S11301C00E9487066C2F661F6627661F8CE00E94BC
S11301D08706C6FB662760F98AE00E948706C5FB8E
S11301E0662760F989E00E948706C4FB662760F9E8
S11301F088E00E94870661E082E00E9487068FE91A
S11302009FE00197F1F700C0000060E082E00E94E7
S113021087068FE99FE00197F1F700C00000C3FB58
S1130220662760F98CE00E948706C2FB662760F9A6
S11302308AE00E948706C1FB662760F989E00E9474
S113024087066C2F617088E00E94870661E082E077
S11302500E9487068FE99FE00197F1F700C0000034
S113026060E082E00E9487068FE99FE00197F1F742
S113027000C00000CF9108952FEF80E792E0215055
S113028080409040E1F700C0000082E00E94DC0062
S113029088E20E94DC008CE00E94DC0081E00E9485
S11302A0DC008FE99FE00197F1F700C0000086E0D1
S11302B00E94DC000895823031F0833031F08130C7
S11302C029F4605C03C06C5E01C06C5A862F8068A0
S11302D00E94DC00089581E00E94DC008FE39FE12E
S11302E00197F1F700C000000895CF93C82F61E093
S11302F083E00E9487066C2F661F6627661F8CE0CA
S11303000E948706C6FB662760F98AE00E9487067A
S1130310C5FB662760F989E00E948706C4FB66274F
S113032060F988E00E94870661E082E00E94870607
S11303308FE99FE00197F1F700C0000060E082E0E0
S11303400E9487068FE99FE00197F1F700C0000043
S1130350C3FB662760F98CE00E948706C2FB662710
S113036060F98AE00E948706C1FB662760F989E08C
S11303700E9487066C2F617088E00E94870661E006
S113038082E00E9487068FE99FE00197F1F700C0A1
S1130390000060E082E00E9487068FE99FE00197F9
S11303A0F1F700C00000CF9108950E9475010895EF
S11303B00F931F93CF938C01C0E003C0CF5F0E94C3
S11303C0D501F801EC0FF11D80818111F7CFCF9198
S11303D01F910F910895CF93DF93EA010E945B016F
S11303E0CE010E94D801DF91CF910895813059F058
S11303F028F0823069F0833081F0089560E08FE066
S11304000E948706089560E084E00E9487060895AC
S113041060E085E00E948706089560E086E00E941F
S1130420870608956130E1F4813059F028F0823074
S113043069F0833081F0089561E08FE00E948706BF
S1130440089561E084E00E948706089561E085E0F4
S11304500E948706089561E086E00E948706089559
S1130460813059F028F0823069F0833081F00895AA
S113047060E08FE00E948706089560E084E00E94B7
S11304808706089560E085E00E948706089560E08D
S113049086E00E94870608958130A9F028F0823012
S11304A009F1833071F108958FE00E94E6068823F4
S11304B029F060E08FE00E948706089561E08FE0F4
S11304C00E948706089584E00E94E606882329F0A6
S11304D060E084E00E948706089561E084E00E9461
S11304E08706089585E00E94E606882329F060E0E7
S11304F085E00E948706089561E085E00E948706F2
S1130500089586E00E94E606882329F060E086E0EC
S11305100E948706089561E086E00E948706089598
S11305208091200190912101019690932101809363
S1130530200186E082BF40912001509121019A015F
S1130540369527953695279536952795A5ECB0E2EF
S11305500E944F09929582958F7089279F708927F1
S113056068EE73E0869F9001879F300D969F300D53
S113057011244217530709F09CC080917B008130FD
S113058079F028F08230A9F08330C9F01DC061E011
S113059083E00E94120210921B0110921A0114C0EF
S11305A060E083E00E94120210921B0110921A0173
S11305B00BC081E080931B0110921A0105C01092B8
S11305C01B0181E080931A0180917A00813079F0D7
S11305D028F08230A9F08330C9F01DC061E082E0C8
S11305E00E941202109219011092180114C060E0C6
S11305F082E00E94120210921901109218010BC09D
S113060081E0809319011092180105C0109219011C
S113061081E08093180180917900813079F028F08D
S11306208230A9F08330C9F01DC061E081E00E94EE
S11306301202109217011092160114C060E081E0BA
S11306400E94120210921701109216010BC081E051
S1130650809317011092160105C01092170181E0D2
S11306608093160180917800813079F028F08230EF
S1130670A9F08330C9F01DC061E080E00E9412023D
S1130680109215011092140114C060E080E00E94E1
S1130690120210921501109214010BC081E0809394
S11306A015011092140105C01092150181E0809388
S11306B0140140912001509121019A013295229513
S11306C02F7023273F702327A3E6B0E10E944F0930
S11306D096958795969587959695879560ED77E09D
S11306E0869F9001879F300D969F300D11244217ED
S11306F05307D9F480911A01813019F483E00E94E0
S11307004C0280911801813019F482E00E944C025D
S113071080911601813011F40E944C0280911401E1
S1130720813019F480E00E944C02409120015091E4
S113073021019A0136952795329522952F7023270A
S11307403F702327A9E1B4E00E944F09969587954D
S113075060EA7FE0869F9001879F300D969F300D61
S1130760112442175307F9F480911B01813019F4C5
S113077083E00E944C0280911901813019F482E0D7
S11307800E944C0280911701813011F40E944C02A6
S113079080911501813019F480E00E944C0210927E
S11307A0210110922001089560E080E10E948706F3
S11307B060E081E10E9487060E943C010E946B0078
S11307C062E080E00E947A070E94F80780E992E0E4
S11307D00E94FC07789480E00E94F60183E00E9466
S11307E0F60181E00E94F60182E00E94F60163E0D6
S11307F080E00E94870663E081E00E94870663E050
S113080087E00E94870663E08EE00E94870644E941
S113081050E060E080E00E94EB0160E081E00E9433
S11308205B0111E0C0E0D0E059C00E948C0090ED63
S1130830980F9A30B8F49E01220F331FCC0FDD1F9E
S1130840CC0FDD1FCC0FDD1FC20FD31FC80FD11D6E
S1130850E0976FEF610F81E00E945B018AE20E94E2
S1130860D5011F5F1530D1F5C23D24E0D207D9F47C
S113087043EA50E060E080E00E94EB0188E893E105
S113088005C0E0E9F1E03197F1F701970097C9F766
S113089061E080E10E94870660E081E10E948706B2
S11308A00E946B011BC045EB50E060E080E00E94B9
S11308B0EB0188E893E105C0E0E9F1E03197F1F755
S11308C001970097C9F70E946B0144E950E060E08A
S11308D080E00E94EB0111E0C0E0D0E0153008F4A4
S11308E0A4CF0E946B0147EC50E060E080E00E94DE
S11308F0EB0143ED50E060E081E00E94EB014FED3D
S113090050E060E082E00E94EB014BEE50E060E0DA
S113091083E00E94EB01C12C00E0D12C10E0E12C1B
S1130920D0E0F12CC0E010921C0110921D01109235
S11309301E0110921F0180E00E945100811121C00C
S113094081E08093220117C080911C0190911D01C8
S1130950A0911E01B0911F010196A11DB11D8093AC
S11309601C0190931D01A0931E01B0931F0180EA06
S11309709FE00197F1F780E00E945100882321F362
S113098075C081E00E945100811121C082E08093F2
S1130990220117C080911C0190911D01A0911E019C
S11309A0B0911F010196A11DB11D80931C0190936C
S11309B01D01A0931E01B0931F0180EA9FE00197DF
S11309C0F1F781E00E945100882321F34FC082E0B7
S11309D00E945100811121C083E08093220117C03D
S11309E080911C0190911D01A0911E01B0911F01E5
S11309F00196A11DB11D80931C0190931D01A0932C
S1130A001E01B0931F0180EA9FE00197F1F782E095
S1130A100E945100882321F329C083E00E945100E1
S1130A20811121C084E08093220117C080911C01B0
S1130A3090911D01A0911E01B0911F010196A11D6D
S1130A40B11D80931C0190931D01A0931E01B093CE
S1130A501F0180EA9FE00197F1F783E00E945100B3
S1130A60882321F303C085E08093220180911C0137
S1130A7090911D01A0911E01B0911F01AC01BD0117
S1130A8041505109610971094B3D5540610571059A
S1130A9008F063C0809122018130A1F4C11104C027
S1130AA010927B00C1E00EC0C13061F4FF2041F020
S1130AB081E0F81207C080937B00F12CC0E002C0F3
S1130AC0FF24F394809122018230A9F4D11104C04F
S1130AD010927A00D1E00FC0D13069F4EE2049F0D1
S1130AE021E0E21208C081E080937A00E12CD0E09A
S1130AF002C0EE24E394809122018330A1F4111109
S1130B0004C01092790011E00EC0113061F4DD20B0
S1130B1041F081E0D81207C080937900D12C10E015
S1130B2002C0DD24D39480912201843009F05AC09C
S1130B30011104C01092780001E054C0013009F0A2
S1130B4051C0CC2009F44CC021E0C2124BC081E05A
S1130B5080937800C12C00E045C0883B9B40A105F0
S1130B60B105F8F480912201813021F482E0809370
S1130B707B0038C080912201823019F480937A007E
S1130B8031C080912201833021F482E08093790086
S1130B9029C080912201843029F582E08093780075
S1130BA021C080912201813021F483E080937B0075
S1130BB019C080912201823021F483E080937A006D
S1130BC011C080912201833019F4809379000AC006
S1130BD080912201843031F483E08093780002C054
S1130BE0CC24C39480917B00813069F028F082305A
S1130BF089F08330B1F01BC047EF50E068E080E03B
S1130C000E94EB0114C04DEF50E068E080E00E94C8
S1130C10EB010DC043E051E068E080E00E94EB018D
S1130C2006C04BE051E068E080E00E94EB01809157
S1130C307A00813069F028F0823089F08330B1F095
S1130C401BC047EF50E068E081E00E94EB0114C054
S1130C504DEF50E068E081E00E94EB010DC043E0FD
S1130C6051E068E081E00E94EB0106C04BE051E0F6
S1130C7068E081E00E94EB0180917900813069F0A5
S1130C8028F0823089F08330B1F01BC047EF50E088
S1130C9068E082E00E94EB0114C04DEF50E068E090
S1130CA082E00E94EB010DC043E051E068E082E085
S1130CB00E94EB0106C04BE051E068E082E00E9434
S1130CC0EB0180917800813069F028F0823089F05E
S1130CD08330B1F028CE47EF50E068E083E00E9413
S1130CE0EB0121CE4DEF50E068E083E00E94EB0180
S1130CF01ACE43E051E068E083E00E94EB0113CE9A
S1130D004BE051E068E083E00E94EB010CCEE82F59
S1130D10E695E695E695482F47706230B0F4AE2F1D
S1130D20B0E01496AA0FBB1FA458BF4F0D90BC91FE
S1130D30A02D2C9181E090E0042E02C0880F991F11
S1130D400A94E2F7822B8C9316C0AE2FB0E014966F
S1130D50AA0FBB1FA458BF4F0D90BC91A02D8C911E
S1130D6021E030E0042E02C0220F331F0A94E2F780
S1130D70209528232C93613011F0633099F4F0E02E
S1130D80EE0FFF1FE458FF4F0190F081E02D20810A
S1130D9081E090E002C0880F991F4A95E2F7822B08
S1130DA080830895F0E0EE0FFF1FE458FF4F019099
S1130DB0F081E02D208181E090E002C0880F991F2E
S1130DC04A95E2F78095822380830895E82FE6957B
S1130DD0E695E695282F2770F0E03896EE0FFF1F72
S1130DE0E458FF4F0190F081E02D9081892F90E02D
S1130DF002C0959587952A95E2F7817008951F9210
S1130E000F920FB60F9211242F933F934F935F933A
S1130E106F937F938F939F93AF93BF93EF93FF93BE
S1130E20E0912701F0912801309709F00995FF918D
S1130E30EF91BF91AF919F918F917F916F915F914E
S1130E404F913F912F910F900FBE0F901F901895C7
S1130E501F920F920FB60F9211242F933F934F932B
S1130E605F936F937F938F939F93AF93BF93EF930E
S1130E70FF93E0912501F0912601309709F009953F
S1130E80FF91EF91BF91AF919F918F917F916F915E
S1130E905F914F913F912F910F900FBE0F901F9034
S1130EA018951F920F920FB60F9211242F933F9310
S1130EB04F935F936F937F938F939F93AF93BF935E
S1130EC0EF93FF93E0912301F0912401309709F00F
S1130ED00995FF91EF91BF91AF919F918F917F9170
S1130EE06F915F914F913F912F910F900FBE0F9093
S1130EF01F901895813069F028F0823089F0833092
S1130F00B1F01BC083B78F7B83BF83B7877F83BF59
S1130F1014C083B7806483BF83B7877F83BF0DC04A
S1130F2083B78F7B83BF83B7886083BF06C083B7D3
S1130F30806483BF83B7886083BF862F90E0883046
S1130F40910508F054C0FC01E65DFF4F0C9449097B
S1130F5083B78E7F83BF83B78D7F83BF83B78B7F38
S1130F6083BF089583B7816083BF83B78D7F83BFB9
S1130F7083B78B7F83BF089583B78E7F83BF83B787
S1130F80826083BF83B78B7F83BF089583B78160FB
S1130F9083BF83B7826083BF83B78B7F83BF08958A
S1130FA083B78E7F83BF83B78D7F83BF83B784600E
S1130FB083BF089583B7816083BF83B78D7F83BF69
S1130FC083B7846083BF089583B78E7F83BF83B75D
S1130FD0826083BF83B7846083BF089583B78160D1
S1130FE083BF83B7826083BF83B7846083BF089560
S1130FF089B7816089BF0895909338018093370140
S113100008951F920F920FB60F9211242F933F93BE
S11310104F935F936F937F938F939F93AF93BF93FC
S1131020EF93FF93E0913701F0913801309709F085
S11310300995FF91EF91BF91AF919F918F917F910E
S11310406F915F914F913F912F910F900FBE0F9031
S11310501F9018951F920F920FB60F9211242F9381
S11310603F934F935F936F937F938F939F93AF932C
S1131070BF93EF93FF93E0913501F09136013097E0
S113108009F00995FF91EF91BF91AF919F918F91D5
S11310907F916F915F914F913F912F910F900FBE70
S11310A00F901F9018951F920F920FB60F92112454
S11310B02F933F934F935F936F937F938F939F935C
S11310C0AF93BF93EF93FF93E0913301F091340119
S11310D0309709F00995FF91EF91BF91AF919F91DE
S11310E08F917F916F915F914F913F912F910F90CD
S11310F00FBE0F901F9018951F920F920FB60F926C
S113110011242F933F934F935F936F937F938F9308
S11311109F93AF93BF93EF93FF93E0913101F091CD
S11311203201309709F00995FF91EF91BF91AF918A
S11311309F918F917F916F915F914F913F912F91EB
S11311400F900FBE0F901F9018951F920F920FB61D
S11311500F9211242F933F934F935F936F937F9339
S11311608F939F93AF93BF93EF93FF93E0912F01DE
S1131170F0913001309709F00995FF91EF91BF91FB
S1131180AF919F918F917F916F915F914F913F911B
S11311902F910F900FBE0F901F9018951F920F92D2
S11311A00FB60F9211242F933F934F935F936F9336
S11311B07F938F939F93AF93BF93EF93FF93E091AC
S11311C02D01F0912E01309709F00995FF91EF91CF
S11311D0BF91AF919F918F917F916F915F914F914B
S11311E03F912F910F900FBE0F901F9018951F9253
S11311F00F920FB60F9211242F933F934F935F9347
S11312006F937F938F939F93AF93BF93EF93FF93CA
S1131210E0912B01F0912C01309709F00995FF9191
S1131220EF91BF91AF919F918F917F916F915F915A
S11312304F913F912F910F900FBE0F901F901895D3
S11312401F920F920FB60F9211242F933F934F9337
S11312505F936F937F938F939F93AF93BF93EF931A
S1131260FF93E0912901F0912A01309709F0099543
S1131270FF91EF91BF91AF919F918F917F916F916A
S11312805F914F913F912F910F900FBE0F901F9040
S11312901895EE0FFF1F0590F491E02D0994A29F7D
S11312A0B001B39FC001A39F700D811D1124911D36
S11312B0B29F700D811D1124911D0895F894FFCFE4
S11312C01F1E1D1B151413123738392F3435362AB7
S11312D03132332D43303D2B010101013B003800F5
S11312E0350032003A00370034003100390036004E
S11312F033003000456E7465722070617373776FCC
S113130072640052696768742070617373776F72D6
S1131310642020200057726F6E67205061737377CA
S11313206F7264202120005269676874203A20207B
S11313302020004C45465420203A202020200046FE
S1131340524F4E54203A20202020004241434B204B
S1131350203A20202020004F4E202020004F4646D7
S113136020200053484F52542020004C4F4E472019
S10713702020200015
S9030000FC
